:100000000C945D000C9485000C9485000C94850084
:100010000C9485000C9485000C9485000C9485004C
:100020000C9485000C9485000C9485000C9485003C
:100030000C9485000C9485000C9485000C9485002C
:100040000C9410020C9485000C9485000C9485008F
:100050000C9485000C9485000C9485000C9485000C
:100060000C945A020C948500000000002400270024
:100070002A0000000000250028002B0004040404CE
:100080000404040402020202020203030303030342
:10009000010204081020408001020408102001021F
:1000A00004081020000000080002010000030407FB
:1000B00000000000000000002C0411241FBECFEF40
:1000C000D8E0DEBFCDBF11E0A0E0B1E0EAE8F8E0A3
:1000D00002C005900D92A831B107D9F721E0A8E13F
:1000E000B1E001C01D92A73CB207E1F710E0CDE5F9
:1000F000D0E004C02197FE010E943D04CC35D10719
:10010000C9F70E9479030C9443040C94000090E01A
:10011000FC01EC55FF4F2491FC01E057FF4F349157
:10012000FC01E458FF4FE491EE23C9F0222339F09B
:10013000233001F1A8F4213019F1223029F1F0E047
:10014000EE0FFF1FEE58FF4FA591B4918FB7F894B3
:10015000EC91611126C030953E233C938FBF0895EA
:100160002730A9F02830C9F0243049F78091800069
:100170008F7D03C0809180008F7780938000DFCFD8
:1001800084B58F7784BDDBCF84B58F7DFBCF809125
:10019000B0008F778093B000D2CF8091B0008F7D78
:1001A000F9CF3E2BDACF3FB7F8948091C3019091FD
:1001B000C401A091C501B091C60126B5A89B05C098
:1001C0002F3F19F00196A11DB11D3FBFBA2FA92FD6
:1001D000982F8827BC01CD01620F711D811D911DD3
:1001E00042E0660F771F881F991F4A95D1F708953F
:1001F0000895CF93DF93AC01E091B001F091B1018C
:100200003097F1F09091AF018091AE019817C0F056
:1002100090E0292F30E02617370754F4D901A85E63
:10022000BE4F240F351FE90128812C939F5FF1CF2A
:100230001092AF016093AE01CB01DF91CF91099491
:10024000DF91CF91089520915E01260F3327331F50
:1002500021323105ECF420918201FC0190E080E034
:10026000243069F082E00895A0915E012191AC01F3
:10027000425C5E4FA40FB52FB11D2C9301968617DB
:1002800098F380915E01680F60935E0180E00895AD
:1002900081E008951092820181E0809384011092A0
:1002A000830161E082E10E94870061E083E10E94B6
:1002B0008700E9EBF0E080818E7F808380818D7FF5
:1002C000808388E48093B80085E48093BC0008951F
:1002D0000895E091AF018091AE01E81730F4F0E0AD
:1002E000E85EFE4F808190E008958FEF9FEF0895C4
:1002F0009091AF018091AE012FEF3FEF981748F436
:10030000E92FF0E0E85EFE4F208130E09F5F9093A0
:10031000AF01C90108958091AE019091AF01891B91
:10032000990B0895CF93DF93CB01EA01642F0E94CC
:100330002301CE01DF91CF910895CF93DF931F92D8
:10034000CDB7DEB7698361E0CE0101960E9423013B
:1003500081E090E00F90DF91CF91089590E080E0F0
:10036000089544E050E063E171E082EB91E00C9489
:100370009201CF93DF9385ED8093BC0080913A0189
:1003800090913B01A0913C01B0913D010796A11DC8
:10039000B11D23E0B695A795979587952A95D1F736
:1003A0002091BC0024FD03C01092820136C0409110
:1003B0003A0150913B0160913C0170913D01452B08
:1003C000462B472B69F30097A105B10541F025E3C2
:1003D0002A95F1F700000197A109B109E1CF8091B9
:1003E000390191E0909338018823B9F0C091B800A9
:1003F000D091BA008091BC008A7B8093BC0060E001
:1004000082E10E94870060E083E10E9487000E94F1
:100410004A01D093BA00C093B800DF91CF910895FC
:100420001F920F920FB60F9211242F933F938F9329
:100430009F93AF93BF938091BF019091C001A09112
:10044000C101B091C2013091BE0123E0230F2D37CD
:1004500058F50196A11DB11D2093BE018093BF01E7
:100460009093C001A093C101B093C2018091C301D8
:100470009091C401A091C501B091C6010196A11D42
:10048000B11D8093C3019093C401A093C501B093A3
:10049000C601BF91AF919F918F913F912F910F9086
:1004A0000FBE0F901F90189526E8230F0296A11DEE
:1004B000B11DD2CF1F920F920FB60F9211242F931E
:1004C0003F934F935F936F937F938F939F93AF93DC
:1004D000BF93EF93FF938091B900887F803609F432
:1004E0004AC0F0F5883209F4A7C018F5803109F444
:1004F0009BC0B8F4882309F4F9C0883009F494C08B
:10050000FF91EF91BF91AF919F918F917F916F91EB
:100510005F914F913F912F910F900FBE0F901F90C1
:100520001895883109F488C0803251F78093810191
:1005300014C0803409F49DC040F48033B9F388338B
:10054000F9F68093810185ECB0C0803509F485C04F
:10055000883509F496C0883499F60E94B901D0CF45
:10056000883909F48CC038F5883729F050F488367A
:1005700011F0803729F683E0809382011092800188
:1005800057C0883809F47BC0803919F0803809F0E9
:10059000B7CF80918001803208F071C0E091800176
:1005A00081E08E0F809380018091BB00F0E0E05AE3
:1005B000FE4F80833DC0803B39F0E0F4803A09F47F
:1005C00079C0883A09F09CCF84E080938201109230
:1005D0005F0110925E01E091AA01F091AB010995D3
:1005E00080915E0181110FC081E080935E011092C5
:1005F0003E0109C0803C09F4A6CF883C09F4A3CF92
:10060000883B09F07DCFE0915F0181E08E0F809300
:100610005F01F0E0E25CFE4F80818093BB0090912F
:100620005F0180915E0129C08091A7018093BB008A
:1006300085EC8093BC0064CF9091A6018091A501C8
:10064000981758F5E091A60181E08E0F8093A601DE
:10065000F0E0EB57FE4F8081E9CFE091A60181E009
:100660008E0F8093A6018091BB00F0E0EB57FE4F08
:1006700080839091A6018091A5019817C8F285E822
:10068000D8CFE091A60181E08E0F8093A6018091E2
:10069000BB00F0E0EB57FE4F808380918401811115
:1006A0005CCF81E08093830184EA8093BC00109248
:1006B000820126CF85EC8093BC001092820180914C
:1006C0008001803230F4E0918001F0E0E05AFE4F8A
:1006D00010826091800170E0E091A801F091A90181
:1006E00080E691E00995109280010ACF1092810175
:1006F00034CF789484B5826084BD84B5816084BD34
:1007000085B5826085BD85B5816085BD80916E00AF
:10071000816080936E0010928100809181008260E0
:10072000809381008091810081608093810080911D
:1007300080008160809380008091B100846080930C
:10074000B1008091B00081608093B00080917A0008
:10075000846080937A0080917A00826080937A002E
:1007600080917A00816080937A0080917A0080681D
:1007700080937A001092C100E2E9F0E02491EEE764
:10078000F0E08491882399F090E0880F991FFC0194
:10079000E859FF4FA591B491FC01EE58FF4F8591A8
:1007A00094918FB7F894EC91E22BEC938FBF109259
:1007B000AF011092AE011092AD011092AC010E94F7
:1007C0004A0188EF90E09093AB018093AA0189EFF2
:1007D00090E09093A9018093A80180E18093BA00F2
:1007E00081EB91E09093B1018093B001D1E000E002
:1007F00010E0C09100016C2F82E00E9487000E94EF
:10080000D3004B015C0184E6C82ED12CE12CF12CE5
:100810000E94D300681979098A099B09683E7340D0
:1008200081059105A8F321E0C21AD108E108F10879
:1008300088EE880E83E0981EA11CB11CC114D1045F
:10084000E104F10429F7CD27C0930001011511053A
:1008500081F20E940000CDCFE2EBF1E01382128220
:1008600088EE93E0A0E0B0E084839583A683B7830D
:1008700085E091E0918380830895EE0FFF1F05903E
:0A088000F491E02D0994F894FFCFE5
:10088A0001000000009D019201AE0168018B017810
:08089A0001690177746630006A
:00000001FF
