:100000000C94D3010C9404020C9404020C9404028A
:100010000C9404020C9404020C9404020C94040248
:100020000C9404020C94650A0C94130B0C94EB0AC8
:100030000C9404020C9404020C9404020C94040228
:100040000C9404020C94C50B0C9404020C9404024E
:100050000C9404020C9404020C9404020C949B086B
:100060000C9404020C940F090C94E5080C940402FF
:100070000C9404020C9404020C9404020C940402E8
:100080000C94970B0C9404020C9404020C9404023C
:100090000C9404020C9404020C9404020C94450980
:1000A0000C9404020C9404020C94690B0C9404024A
:1000B0000C9404020C9404020C9404020C943B0B68
:1000C0000C9404020C9404020C9404020C94040298
:1000D0000C9404020C9404020C9404020C94040288
:1000E0000C94040207634236B79BD8A71A396856A6
:1000F00018AEBAAB558C1D3CB7CC5763BD6DEDFD4A
:10010000753EF6177231BF000000803F0800000006
:10011000BE922449123EABAAAA2ABECDCCCC4C3EFC
:1001200000000080BEABAAAAAA3E00000000BF00EB
:100130000000803F0000000000084178D3BB4387E7
:10014000D1133D190E3CC3BD4282AD2B3E68EC82FB
:1001500076BED98FE1A93E4C80EFFFBE01C4FF7F80
:100160003F00000000000C9498030C946C020C9467
:1001700045060C946F020C9460020C94F2030C94EC
:100180009B020C94F6050C948D020C9487020C943F
:10019000AC030C945A020C9402070C9468020C9461
:1001A00005060C949A020C94F30B0C9491020C9497
:1001B0001D060C94DC050C949F020C9464020C94B4
:1001C00079020C94CB120C945C030C947F020C9477
:1001D00095020C943F040C9489030C9483020C94B4
:1001E000BA030C94750200C2010001001100110055
:1001F0000C0000E100000A00250025002100009607
:1002000000001900390039003600127A00001F0082
:100210004600460044008070000022004D004D0062
:100220004A00004B0000360075007500720040382F
:1002300000004A009C009C0099008025000072008C
:10024000EC00EC00E900C0120000E900DA01DA017C
:10025000D70160090000D701B603B603B303B004A9
:100260000000B3036E076E076B07580200006E07AD
:10027000DC0EDC0ED80E2C010000DC0EC11DC11DF1
:10028000BE1D00002100240027002A002D003000A0
:10029000330001010000040107010A0100000A0BFC
:1002A00002090C0D0E080703040100000000000005
:1002B000000000000000000000000000000000003E
:1002C00000000000000000001211100000000000FB
:1002D000000000000000000000000000000000001E
:1002E0000000000020002300260029002C002F0021
:1002F0003200000100000301060109010000220094
:10030000250028002B002E003100340002010000DF
:10031000050108010B010505050507050808080882
:10032000020202020A0A080804040404010101018D
:100330000101010103030303030303030407070788
:100340000C0C0C0C0C0C0C0C02020202060606062D
:10035000060606060B0B0B0B0B0B0B0B01021020FA
:1003600020080810204010204080020102010804EB
:10037000020101020408102040808040201008047F
:1003800002018004020180402010080402010804D8
:10039000020101020408102040800102040810201C
:1003A0004080F30BCB1211241FBECFEFD1E2DEBF92
:1003B000CDBF00E00CBF12E0A0E0B2E0EAEAFEE24E
:1003C00000E00BBF02C007900D92A835B107D9F726
:1003D00026E0A8E5B2E001C01D92A23CB207E1F719
:1003E00011E0C2EDD1E000E006C021970109802FA5
:1003F000FE010E949213C13DD10780E00807A9F7D2
:100400000E94020D0C9443170C940000E0919C058F
:10041000E03388F540919D0528E830E0241B310940
:1004200047FD3395220F331F220F331F8217930787
:1004300084F040919E0528E532E0241B310947FDF8
:100440003395220F331F220F331F821793070CF4AB
:100450009C0122503109220F331F4FB7F8948E2F81
:1004600090E0FC01EE0FFF1FE80FF91FE55FFA4F68
:10047000328321834FBF08958150823108F05AC0E2
:10048000E82FF0E08827E85BFD4F8F4F0C94921324
:1004900068026C025A02600264029A026F027502DC
:1004A00079027F02830287028D0291029A029502ED
:1004B0009B029F02809180008F7780938000089537
:1004C000809180008F7DF9CF80918000877FF5CF6C
:1004D00084B58F7784BD089584B58F7DFBCF8091DF
:1004E000B0008F778093B00008958091B0008F7D29
:1004F000F9CF809190008F7780939000089580913C
:1005000090008F7DF9CF80919000877FF5CF80910B
:10051000A0008F778093A00008958091A0008F7D28
:10052000F9CF8091A000877FF5CF809120018F7750
:10053000809320010895809120018F7DF9CF8091D3
:100540002001877FF5CF1F93CF93DF93282F30E0D3
:10055000F901E456FD4F8491F901E45AFC4FD4911E
:10056000F901EA5EFC4FC491CC23A9F0162F81114A
:100570000E943C02EC2FF0E0EE0FFF1FE450FD4F15
:10058000A591B4918FB7F894EC91111108C0D09552
:10059000DE23DC938FBFDF91CF911F910895DE2B77
:1005A000F8CFCF93DF9390E0FC01E45AFC4F249105
:1005B0008A5E9C4FFC0184918823D1F090E0880FE3
:1005C000991FFC01EE57FD4FA591B491FC01E45039
:1005D000FD4FC591D49161110EC09FB7F8948C91D5
:1005E000E22FE0958E238C932881E223E8839FBF3E
:1005F000DF91CF9108958FB7F894EC91E22BEC93B3
:100600008FBFF6CF3FB7F89480916A0490916B0446
:10061000A0916C04B0916D0426B5A89B05C02F3F36
:1006200019F00196A11DB11D3FBFBA2FA92F982F18
:100630008827BC01CD01620F711D811D911D42E013
:10064000660F771F881F991F4A95D1F708958F92DB
:100650009F92AF92BF92CF92DF92EF92FF920E9451
:1006600002034B015C018AEFC82ED12CE12CF12C46
:100670000E940203681979098A099B09683E734040
:1006800081059105A8F321E0C21AD108E108F1081B
:1006900088EE880E83E0981EA11CB11CC114D10401
:1006A000E104F10429F7FF90EF90DF90CF90BF9025
:1006B000AF909F908F900895AF92BF92CF92DF92AC
:1006C000EF92FF920F931F93CF93DF936C017B0107
:1006D0008B01040F151FEB015E01AE18BF08C01798
:1006E000D10759F06991D601ED91FC910190F0810B
:1006F000E02DC6011995892B79F7C501DF91CF91BE
:100700001F910F91FF90EF90DF90CF90BF90AF902F
:100710000895FC01538D448D252F30E0842F90E007
:10072000821B930B541710F0CF96089501970895EC
:10073000FC01918D828D981761F0A28DAE0FBF2FB5
:10074000B11D5D968C91928D9F5F9F73928F90E00B
:1007500008958FEF9FEF0895FC01918D828D98177A
:1007600031F0828DE80FF11D858D90E008958FEFB7
:100770009FEF0895FC01918D228D892F90E0805C80
:100780009F4F821B91098F73992708958EE694E0FD
:100790000E94BA0321E0892B09F420E0822F0895FA
:1007A000FC01A48DA80FB92FB11DA35ABF4F2C91E6
:1007B000848D90E001968F739927848FA689B789DD
:1007C0002C93A089B1898C91837080648C93938DD4
:1007D000848D981306C00288F389E02D80818F7D77
:1007E00080830895EF92FF920F931F93CF93DF932F
:1007F000EC0181E0888F9B8D8C8D98131AC0E8895D
:10080000F989808185FF15C09FB7F894EE89FF892B
:100810006083E889F98980818370806480839FBFC9
:1008200081E090E0DF91CF911F910F91FF90EF90C9
:100830000895F62E0B8D10E00F5F1F4F0F731127D9
:10084000E02E8C8D8E110CC00FB607FCFACFE88914
:10085000F989808185FFF5CFCE010E94D003F1CFC9
:10086000EB8DEC0FFD2FF11DE35AFF4FF0829FB788
:10087000F8940B8FEA89FB8980818062CFCFCF9378
:10088000DF93EC01888D8823B9F0AA89BB89E889B8
:10089000F9898C9185FD03C0808186FD0DC00FB65E
:1008A00007FCF7CF8C9185FFF2CF808185FFEDCFDC
:1008B000CE010E94D003E9CFDF91CF91089580E06F
:1008C00090E0892B29F00E94C60381110E9400004C
:1008D00080E090E0892B49F080E090E0892B29F0BE
:1008E0000E94000081110E94000080E090E0892BAE
:1008F00049F080E090E0892B29F00E9400008111EE
:100900000E94000080E090E0892B49F080E090E0B8
:10091000892B29F00E94000081110C940000089599
:100920002091E0023091E10221303105D9F124F526
:100930002115310561F1F901E051FD4F808380916E
:10094000F302482F50E04B5F5F4F2417350719F52E
:100950001092E1021092E0028B5FE0EFF2E040E0E3
:1009600090E0481768F13327F901E051FD4F81E02D
:10097000208129131DC0089522303105F1F0233064
:100980003105C9F68A3780F48093F30204C08535B7
:1009900079F48093F0022F5F3F4F3093E102209370
:1009A000E00206C08A3A31F01092E1021092E002B1
:1009B00080E0E1CF8093F102EECF8093F202EBCFA3
:1009C0005191950F4F5FCDCF1F93CF93DF93C1E030
:1009D000C0939C02882399F1D091B8001091BA007D
:1009E0008091BC008A7B8093BC0060E084E10E941F
:1009F000A30260E085E10E94A3021092B803C093B5
:100A0000B7031092920361E084E10E94A30261E0C7
:100A100085E10E94A3028091B9008E7F8093B90086
:100A20008091B9008D7F8093B90088E48093B800ED
:100A300085E48093BC001093BA00D093B800DF9196
:100A4000CF911F9108952091BD02260F3327331FA8
:100A500021323105ECF42091B803FC0190E080E0F4
:100A6000243069F082E00895A091BD022191AC018B
:100A700043565D4FA40FB52FB11D2C9301968617D9
:100A800098F38091BD02680F6093BD0280E00895E5
:100A900081E008950895E091710380917003E81753
:100AA00030F4F0E0EE58FC4F808190E008958FEF35
:100AB0009FEF089590917103809170032FEF3FEFA6
:100AC000981748F4E92FF0E0EE58FC4F208130E011
:100AD0009F5F90937103C901089580917003909175
:100AE0007103891B990B0895CF92DF92EF92FF92C9
:100AF0000F931F93CF93DF937C01CB018A01209149
:100B0000E103222389F0EB016B01C40ED51ECC1545
:100B1000DD0569F06991D701ED91FC910190F081BB
:100B2000E02DC7011995F3CF642F0E942305C8015A
:100B3000DF91CF911F910F91FF90EF90DF90CF90B9
:100B40000895CF93DF931F92CDB7DEB769832091CD
:100B5000E1032223F9F02091DE03203258F021E056
:100B600030E0FC013383228390E080E00F90DF913E
:100B7000CF9108958091DF03E82FF0E0E254FC4F1D
:100B8000998190838F5F8093DF038093DE0381E000
:100B900090E0ECCF61E0CE0101960E942305F7CFF3
:100BA000DC015196ED91FC915297908150968C9179
:100BB00080958923808308952091EE023091EF0281
:100BC0002817390781F49091EC028091ED02981773
:100BD00051F0E091EC02F0E0E45AFD4F8081082EE4
:100BE000000C990B08958FEF9FEF08952091EE026E
:100BF0003091EF022817390739F48FB7F894109223
:100C0000ED021092EC028FBF08952091EE02309118
:100C1000EF022817390771F48091ED022091EC0260
:100C200090E0805C9F4F821B910960E470E00E941D
:100C30007E13089590E080E008952091EE023091B7
:100C4000EF0228173907B9F49091EC028091ED0278
:100C5000981789F0E091EC02F0E0E45AFD4F8081B2
:100C60002091EC0230E02F5F3F4F2F73332720930A
:100C7000EC0290E008958FEF9FEF089520E0019738
:100C80002FEF8F3F9207D9F7089590E080E0089505
:100C9000AF92BF92CF92DF92EF92FF920F931F938A
:100CA000CF93DF936B017A01EC01C85ADD4F2881A5
:100CB0003CE0389F8001399F100D1124A0909B05C6
:100CC000B12C27FF1FC0FB011182108288818F5F2A
:100CD000888388819801280F311D87FD3A95F60198
:100CE0002A153B051CF488818C30C4F180819181E8
:100CF000049680349C4908F473C0F6018081918188
:100D0000049670C088819801280F311D87FD3A959F
:100D10002A153B05DCF68881A801480F511D87FD87
:100D20005A95FA01EE0FFF1FE40FF51FE55FFA4F2A
:100D3000808186FFCBCF8881F801E80FF11D87FD08
:100D4000FA95CF01EE0FFF1FE80FF91FE55FFA4F8D
:100D5000808160E08F730E94A302B8CF808191816F
:100D60002881A801420F511D27FD5A959A01FA01C9
:100D7000EE0FFF1FE20FF31FE55FFA4F2181328173
:100D8000820F931FF7019183808388819801280F38
:100D9000311D87FD3A95F901EE0FFF1FE20FF31F9A
:100DA000E55FFA4F808186FF22C08881080F111D00
:100DB00087FD1A95F801EE0FFF1FE00FF11FE55FA9
:100DC000FA4F808161E08F73DF91CF911F910F9176
:100DD000FF90EF90DF90CF90BF90AF900C94A30264
:100DE00080E49CE9F701918380838FEF8883DF9112
:100DF000CF911F910F91FF90EF90DF90CF90BF9018
:100E0000AF900895DF92EF92FF920F931F93CF93CD
:100E1000DF93EC01898D9A8D892B71F481E090E04C
:100E20009B838A8390E080E0DF91CF911F910F91A7
:100E3000FF90EF90DF900895162FDFB6F8948B8D1A
:100E400081FD29C0CE010E94D005898D9A8D05961D
:100E50000E943E068B8D98E0E92EF12C01E081FF87
:100E600028C0812F8023F1F0CE010E94D005898D0A
:100E70009A8D0E943E06000F81E0E81AF10889F77A
:100E8000CE010E94D005DFBE898D9A8D0E943E065C
:100E900081E090E0C9CFE989FA8980819889892B1E
:100EA0008083D3CFE989FA8980819889892B8083CF
:100EB000DECF812F8023B1F0E989FA89808198897A
:100EC000892B8083898D9A8D0E943E06000F81E0D8
:100ED000E81AF10871F7E989FA8980819889892BE4
:100EE0008083D1CFCE010E94D005ECCFCF93DF938A
:100EF000FC0101900020E9F73197AF01481B590B25
:100F0000BC018EE694E00E945C03EC0142E050E0FC
:100F100064E272E08EE694E00E945C038C0F9D1FF9
:100F2000DF91CF91089585ED8093BC008091BA0345
:100F30009091BB03A091BC03B091BD030796A11D86
:100F4000B11D23E0B695A795979587952A95D1F77A
:100F50002091BC0024FD03C01092B8030895409175
:100F6000BA035091BB036091BC037091BD03452B44
:100F7000462B472B69F30097A105B10541F025E306
:100F80002A95F1F700000197A109B109E1CF8091FD
:100F9000B9030C94E4044F925F926F927F92AF92E8
:100FA000BF92CF92DF92EF92FF920F931F93CF9356
:100FB000DF93CDB7DEB72E970FB6F894DEBF0FBE26
:100FC000CDBF8130910509F495C0029709F4A1C005
:100FD00089E290E02BE230E04DE250E06FE270E019
:100FE000E1E3F0E0A3E3B0E005E310E01A83098356
:100FF000BC83AB83FE83ED8378876F835A874987F1
:101000003C872B879E878D87CE0101966C0110E06F
:1010100000E0F12CE12CF601219131916F01332791
:10102000F901E456FD4F8491F901E45AFC4FB49064
:10103000F901EA5EFC4FA490AA2009F479C081115D
:101040000E943C02EA2DF0E0EE0FFF1FEE51FD4F33
:10105000A591B491EC91BE2291E080E009F490E07A
:10106000A92EB82EB801012E000C880B990B0E94F6
:1010700053149B01AC0160E070E080E090E40E94BA
:101080004C152B013C01B501BB0C880B990B0E9440
:101090005314A30192010E94DF142B013C01B701FC
:1010A000FF0C880B990B0E9453149B01AC01C301E8
:1010B000B2010E94AF130E941B147B010F5F1F4FF0
:1010C0000730110509F0A7CFCB012E960FB6F89483
:1010D000DEBF0FBECDBFDF91CF911F910F91FF906B
:1010E000EF90DF90CF90BF90AF907F906F905F9028
:1010F0004F90089588E090E027E030E046E050E02F
:1011000065E070E0E4E0F0E0A3E0B0E002E010E0D1
:101110006DCF8AE190E02CE130E04EE150E060E2FA
:1011200070E0E2E2F0E0A4E2B0E006E210E05ECFC0
:10113000B12CA12C97CF1F920F920FB60F921124B2
:101140002F933F938F939F93AF93BF9380916604A8
:1011500090916704A0916804B0916904309165048E
:1011600023E0230F2D3758F50196A11DB11D2093C3
:1011700065048093660490936704A0936804B09319
:10118000690480916A0490916B04A0916C04B09101
:101190006D040196A11DB11D80936A0490936B04A8
:1011A000A0936C04B0936D04BF91AF919F918F9108
:1011B0003F912F910F900FBE0F901F90189526E82A
:1011C000230F0296A11DB11DD2CF1F920F920FB611
:1011D0000F9211240BB60F922F933F934F935F936F
:1011E0006F937F938F939F93AF93BF93EF93FF93EF
:1011F0008EE694E00E94D003FF91EF91BF91AF91F2
:101200009F918F917F916F915F914F913F912F911E
:101210000F900BBE0F900FBE0F901F9018951F924E
:101220000F920FB60F9211240BB60F922F938F933C
:101230009F93EF93FF93E0917E04F0917F04808170
:10124000E0918404F091850482FD1DC0908180911D
:1012500087048F5F8F7320918804821741F0E0919B
:101260008704F0E0E259FB4F958F80938704FF914C
:10127000EF919F918F912F910F900BBE0F900FBE0A
:101280000F901F9018958081F2CF1F920F920FB68A
:101290000F9211240BB60F922F933F934F935F93AE
:1012A0006F937F938F939F93AF93BF93EF93FF932E
:1012B0008091B900887F803609F44DC008F040C0A5
:1012C000883209F4A7C028F5803109F49BC0C8F41E
:1012D000882309F4F7C0883009F494C0FF91EF9196
:1012E000BF91AF919F918F917F916F915F914F913E
:1012F0003F912F910F900BBE0F900FBE0F901F903C
:101300001895883109F486C0803241F78093B6037E
:1013100014C0803409F49BC040F48033B9F388339F
:10132000E9F68093B60385ECAEC0803509F483C03E
:10133000883509F494C0883489F60E949307CECF8B
:10134000883909F48AC038F5883729F050F488368E
:1013500011F0803719F683E08093B8031092DF0212
:1013600055C0883809F479C0803919F0803809F0FF
:10137000B5CF8091DF02803208F06FC0E091DF02CC
:1013800081E08E0F8093DF028091BB00F0E0E1549A
:10139000FD4F80833BC0803B39F0D0F4803A09F4A4
:1013A00077C0883A09F09ACF84E08093B80310920E
:1013B000BE021092BD02F0E0E0E019958091BD02FE
:1013C00081110FC081E08093BD0210929D0209C07F
:1013D000803C09F4A8CF883C09F4A5CF883B09F0EC
:1013E0007DCFE091BE0281E08E0F8093BE02F0E0DF
:1013F000E356FD4F80818093BB009091BE028091A7
:10140000BD0229C0809193038093BB0085EC80933B
:10141000BC0064CF9091B5038091B403981758F540
:10142000E091B50381E08E0F8093B503F0E0EC56B8
:10143000FC4F8081E9CFE091B50381E08E0F80936E
:10144000B5038091BB00F0E0EC56FC4F8083909197
:10145000B5038091B4039817C8F285E8D8CFE0911E
:10146000B50381E08E0F8093B5038091BB00F0E05F
:10147000EC56FC4F80838091B70381115ECF81E0F1
:101480008093920384EA8093BC001092B80326CF25
:1014900085EC8093BC001092B8038091DF0280320B
:1014A00030F4E091DF02F0E0E154FD4F10826091F2
:1014B000DF0270E08FEB92E0F0E0E0E0199510922F
:1014C000DF020CCF1092B60338CF1F920F920FB6E7
:1014D0000F9211240BB60F92EF92FF920F931F936E
:1014E0002F933F934F935F936F937F938F939F932C
:1014F000AF93BF93CF93DF93EF93FF93C091EE022F
:10150000D091EF02209749F0EE85FF859D858B8D68
:1015100081FF1CC080818923E1F4FF91EF91DF916D
:10152000CF91BF91AF919F918F917F916F915F917B
:101530004F913F912F911F910F91FF90EF900F903E
:101540000BBE0F900FBE0F901F90189580818923BE
:1015500021F78B899C890E943E0688E0E82EF12CB9
:1015600010E001E08D899E890E943E06EE85FF8590
:1015700080819D85892339F1102B000F81E0E81AC5
:10158000F10881F78F89988D0E943E068B8D81FD31
:1015900010958091ED022091EC0290E001968F73FE
:1015A00099272817190699F0E091ED02F0E0E45A26
:1015B000FD4F10838091ED0290E001968F73992783
:1015C0008093ED02AACF802F80951823D6CF8B8DE4
:1015D00081608B8FA2CF1F920F920FB60F921124B2
:1015E0000BB60F922F933F934F935F936F937F931D
:1015F0008F939F93AF93BF93EF93FF930E94650ADE
:10160000FF91EF91BF91AF919F918F917F916F91DA
:101610005F914F913F912F910F900BBE0F900FBE96
:101620000F901F9018951F920F920FB60F921124D2
:101630000BB60F922F933F934F935F936F937F93CC
:101640008F939F93AF93BF93EF93FF930E94650A8D
:10165000FF91EF91BF91AF919F918F917F916F918A
:101660005F914F913F912F910F900BBE0F900FBE46
:101670000F901F9018951F920F920FB60F92112482
:101680000BB60F922F933F934F935F936F937F937C
:101690008F939F93AF93BF93EF93FF9348E251E0F3
:1016A00064E271E090E080E00E944806FF91EF91D3
:1016B000BF91AF919F918F917F916F915F914F916A
:1016C0003F912F910F900BBE0F900FBE0F901F9068
:1016D00018951F920F920FB60F9211240BB60F920E
:1016E0002F933F934F935F936F937F938F939F932A
:1016F000AF93BF93EF93FF9348EA50E064EA70E042
:1017000083E090E00E944806FF91EF91BF91AF9176
:101710009F918F917F916F915F914F913F912F9109
:101720000F900BBE0F900FBE0F901F9018951F9239
:101730000F920FB60F9211240BB60F922F933F9377
:101740004F935F936F937F938F939F93AF93BF93C9
:10175000EF93FF9348E950E064E970E082E090E0A5
:101760000E944806FF91EF91BF91AF919F918F9199
:101770007F916F915F914F913F912F910F900BBE91
:101780000F900FBE0F901F9018951F920F920FB6DB
:101790000F9211240BB60F922F933F934F935F93A9
:1017A0006F937F938F939F93AF93BF93EF93FF9329
:1017B00048E850E064E870E081E090E00E9448066C
:1017C000FF91EF91BF91AF919F918F917F916F9119
:1017D0005F914F913F912F910F900BBE0F900FBED5
:1017E0000F901F901895109271041092700448EE9B
:1017F00053E060E070E04093720450937304609390
:1018000074047093750484E092E090936F04809365
:101810006E0485EC90E090937B0480937A0484ECD2
:1018200090E090937D0480937C0480EC90E0909312
:101830007F0480937E0481EC90E0909381048093F8
:10184000800482EC90E0909383048093820486EC81
:1018500090E0909385048093840410928704109202
:1018600088041092890410928A0484E690E0A0E033
:10187000B0E08093950690939606A0939706B09358
:10188000980610929E0610929D061092B60610922F
:10189000B50610929206109291061092940610923C
:1018A00093068FEF8093B7068FEF9FEF9093B90663
:1018B0008093B8069093BB068093BA069093BD06BA
:1018C0008093BC069093BF068093BE069093C1069A
:1018D0008093C0061092780610927706409379069E
:1018E00050937A0660937B0670937C0686E192E0C3
:1018F000909376068093750610928906109288065A
:1019000010928B0610928A0610928D0610928C0609
:1019100010928F0610928E06809190068E7F8D7F9A
:101920008093900661E082E30E94D10261E082E34D
:101930000E94A302EEE8F3E0E491E0938506E8E478
:10194000F3E0E491F0E0EE0FFF1FE450FD4F8591CE
:101950009491909387068093860660E084E30E94CA
:10196000D1028091900681FD04C061E084E30E9471
:10197000A30284E380938106E0E9F3E0E491E0933D
:101980008206EAE4F3E0E491F0E0EE0FFF1FEE518F
:10199000FD4F8591949190938406809383068DEA00
:1019A00095E09093A00580939F059093A205809366
:1019B000A10585E796E09093A4058093A3059093F5
:1019C000A6058093A5051092A7051092AC058091FD
:1019D0009B05803398F491E0980F90939B0580933A
:1019E0009C0590E0FC01EE0FFF1FE80FF91FE55F7B
:1019F000FA4F88EB9BE09283818308958FEF809369
:101A00009C050895789484B5826084BD84B5816016
:101A100084BD85B5826085BD85B5816085BD8091B9
:101A20006E00816080936E00109281008091810031
:101A30008260809381008091810081608093810029
:101A4000809180008160809380008091B1008460EB
:101A50008093B1008091B00081608093B00080914C
:101A600091008260809391008091910081608093C9
:101A70009100809190008160809390008091A100FE
:101A800082608093A1008091A10081608093A10079
:101A90008091A00081608093A000809121018260EC
:101AA00080932101809121018160809321018091A7
:101AB000200181608093200180917A00846080936E
:101AC0007A0080917A00826080937A0080917A0017
:101AD000816080937A0080917A00806880937A0098
:101AE0001092C10060E082E00E94D10260E083E0D9
:101AF0000E94D10260E084E00E94D10260E085E0B3
:101B00000E94D10260E086E00E94D10260E087E09E
:101B10000E94D10260E088E00E94D10260E086E28B
:101B20000E94D10260E084E20E94D10260E082E281
:101B30000E94D10260E080E20E94D10260E08EE16A
:101B40000E94D10260E08CE10E94D10260E08AE153
:101B50000E94D10261E08AE00E94D10261E08AE045
:101B60000E94A30286E390E09093EB028093EA0246
:101B700087E390E09093E9028093E80289E390E0A4
:101B80009093E7028093E6028AE390E09093E50267
:101B90008093E4028BE090E09093E3028093E20272
:101BA00061E086E30E94D10261E087E30E94D102F6
:101BB00061E089E30E94D10261E08AE30E94D102E0
:101BC00060E08BE00E94D10261E086E30E94A30204
:101BD00060E087E30E94A30280919C05803308F0B7
:101BE00052C061E089E00E94D10280919C05282FBB
:101BF00030E0F901EE0FFF1FE20FF31FE55FFA4F30
:101C00009081907C9960908310929D0510929E0522
:101C10002CE0622F0E947213829FB001112430E0E9
:101C200020E0AB01420F531FFA01EE0FFF1FE40F3C
:101C3000F51FE55FFA4F908196FD17C02F5F3F4F6C
:101C40002C30310571F7813009F0D5C01092800039
:101C500082E0809381001092850010928400B19AF6
:101C600080916F00826080936F00E0919C058E2FC1
:101C700090E0FC01EE0FFF1FE80FF91FE55FFA4F40
:101C8000808180648083E0917E04F0917F0482E013
:101C90008083E0917A04F0917B041082E0917C04CF
:101CA000F0917D0480E1808310928604E0918204AB
:101CB000F091830486E08083E0918004F0918104B8
:101CC000808180618083E0918004F0918104808133
:101CD00088608083E0918004F09181048081806835
:101CE0008083E0918004F091810480818F7D8083E6
:101CF00010928F0610928E0610928D0610928C060E
:101D000010928B0610928A0690E080E0FC01EA5166
:101D1000FE4F45915591659174914038554261054A
:101D2000710509F094C0FC01E651FE4F25913491F4
:101D30003093890620938806FC01E451FE4F2591DB
:101D4000349130938B0620938A06FC01E251FE4FBA
:101D50002591349130938D0620938C06FC01E0513F
:101D6000FE4F8591949190938F0680938E0680917B
:101D70008C0690918D06892B09F4B0C08091810664
:101D800026EF280F243048F09EEC980F943028F06E
:101D900092EC980F983008F09BC090916800243026
:101DA00028F032EC380F383008F45BC031E0932B68
:101DB000243048F02EEC280F243028F08E53F0E029
:101DC000E0E0883010F4E8E6F0E09083909181063E
:101DD00036EF390F343008F446C08EEC890F84306A
:101DE00008F441C082EC890FEDE6F0E08830E8F1BC
:101DF000F0E0E0E03AC0823061F41092900080930D
:101E00009100109295001092940088BB809371000D
:101E10002CCF833069F41092A00082E08093A1005F
:101E20001092A5001092A40089BB809372001DCF70
:101E300081111BCF1092200182E08093210110922A
:101E40002501109224018ABB809373000ECF0C965B
:101E50008C39910509F05ACF1092890610928806A4
:101E600086CF34E0A4CFEBE6F0E020813430C0F43C
:101E700081E0692F6650770BAB0101C0880F4A954E
:101E8000EAF7822B343008F12EEC290F2430E8F0E9
:101E90009E53EDE6F0E09830D0F0F0E0E0E017C0BF
:101EA00088E0923371F384E0933359F382E0943302
:101EB00041F382EC890F883030F481E0A92FAE53D2
:101EC000BB0BAD01DACF81E0DCCFEBE6F0E0808345
:101ED00080918E0690918F060E943E068091EE02C0
:101EE0009091EF028557964091F0809190068E7FF9
:101EF000809390068FB7F8941092ED021092EC0246
:101F000025E736E03093EF022093EE028FBFE5EE37
:101F1000FE2EEE24E394CC24CA94D1E0BB24BA94E0
:101F2000FFE0AF2E85E796E09093940680939306AA
:101F3000109292061092910605E010E075ECD72EF3
:101F40001092640485E58093E4038AEA8093E503B4
:101F500081E18093E6038CE28093E8031092E7032B
:101F60008CE38093E90386E090E09093E303809311
:101F7000E2038091910690919206009709F48EC138
:101F8000E092E10322E32093E0031092DF0310923A
:101F9000DE03DC01ED91FC910280F381E02D46E04F
:101FA00050E064EE73E019959090DE03B0E2B9154D
:101FB00008F492C0C091E0030E9402032B013C018F
:101FC0008091B803811163C082E08093B803E092EE
:101FD000B703C092B6031092B5039092B403AEEB70
:101FE000B3E0E4E9F3E080E098122FC1109293038C
:101FF000909193038C2F880F892B8093930380916A
:102000009203813009F025C1109292030E940203CD
:102010002B013C01809193038093BB008091BA0314
:102020009091BB03A091BC03B091BD03892B8A2B77
:102030008B2B99F00E9402032091BA033091BB03CD
:102040004091BC035091BD03641975098609970935
:102050002617370748075907D8F18091BC0083FD40
:10206000D9CFD092BC000E9402032B013C01809189
:10207000B803823009F4F0C08091B6038F3F61F15C
:102080008091B603803241F18091B60325C08091E2
:10209000BA039091BB03A091BC03B091BD03892BFF
:1020A0008A2B8B2B09F48CCF0E9402032091BA0358
:1020B0003091BB034091BC035091BD036419750975
:1020C00086099709261737074807590708F078CF78
:1020D0008091B9030E94E4041092DF031092DE03A2
:1020E0001092E1032FB7F8948091660490916704F1
:1020F000A0916804B09169042FBF809399069093D2
:102100009A06A0939B06B0939C062FB7F8948091F3
:10211000660490916704A0916804B09169042FBF90
:102120004091990650919A0660919B0670919C0689
:10213000841B950BA60BB70B409195065091960604
:102140006091970670919806481759076A077B07B0
:1021500008F418C28091910690919206009709F4B4
:102160002FC1DC01ED91FC910084F185E02D1995E2
:10217000892B09F0D0C00E9402032B013C01809101
:10218000B80381119EC0D093B803D093B703B09227
:10219000B6031092B503A092B403D0939303809139
:1021A000930384668093930380919203813009F0B6
:1021B000E0C0109292030E9402032B013C01809127
:1021C00093038093BB008091BA039091BB03A091CD
:1021D000BC03B091BD03892B8A2B8B2BA1F00E94ED
:1021E00002032091BA033091BB034091BC0350918C
:1021F000BD0364197509860997092617370748072B
:10220000590708F47FC08091BC0083FDD8CFD092DD
:10221000BC000E9402032B013C018091B803813075
:1022200009F4AAC08091B503803108F0C7C080913D
:10223000B503A4E9B3E0E2E7F3E090E0981709F40E
:1022400066C02D9121939F5FF9CF9D9191938F5FF0
:10225000CBCEF092BC0007CF8091BA039091BB0324
:10226000A091BC03B091BD03892B8A2B8B2B09F461
:10227000FECE0E9402032091BA033091BB0340912D
:10228000BC035091BD036419750986099709261787
:1022900037074807590708F0EACE1ACF809193060E
:1022A00090919406009709F41DCFDC01ED91FC910B
:1022B0000280F381E02D46E050E064EE73E0199572
:1022C00011CF8091BA039091BB03A091BC03B09150
:1022D000BD03892B8A2B8B2B09F451CF0E9402035B
:1022E0002091BA033091BB034091BC035091BD03D0
:1022F000641975098609970926173707480759078A
:1023000008F03DCF8091B9030E94E40480E0109270
:102310007103809370038091910690919206DC0185
:10232000ED91FC910084F185E02D1995892B09F43C
:10233000ECCE8091910690919206DC01ED91FC919A
:102340000284F385E02D19950E949004882319F3E7
:102350008091F4028E3209F0D8CE8BE0782E08E816
:1023600010E0C8E5D2E094EBC92ED12CE12CF12C81
:102370008CC0F092BC004DCF8091BA039091BB030A
:10238000A091BC03B091BD03892B8A2B8B2B09F440
:1023900044CF0E9402032091BA033091BB034091C5
:1023A000BC035091BD036419750986099709261766
:1023B00037074807590708F030CFA4CF80E139CF5D
:1023C0008091930690919406892B09F49ECE80917A
:1023D000930690919406DC01ED91FC910084F185C7
:1023E000E02D1995892B09F490CE80919306909158
:1023F0009406DC01ED91FC910284F385E02D1995A2
:102400000E949004882319F3A3CF8091C006909175
:10241000C1068DC080919D054801881A910887FDED
:102420009394880C991C880C991C092C000CAA0800
:10243000BB0880919E059E01281B310987FD3395BD
:10244000220F331F220F331F032E000C440B550B9A
:10245000281939094A095B09A2E4B0E00E94361341
:10246000A70196010E941713DA01C901880D991D71
:10247000AA1DBB1D0E94060284E592E00E94760719
:102480000E94270328C00E945F0481E090E00E9420
:10249000CB0782E090E00E94CB0783E090E00E94AF
:1024A000CB072091AB063091AC0680919D069091B0
:1024B0009E06522F432F8217930714F4582F492F4B
:1024C00050939D0640939E068217930724F08DE457
:1024D00092E00E9476072091AB063091AC064091C5
:1024E0009D0650919E06C901421753070CF4CA017C
:1024F00090939E0680939D064217530724F6AC01E5
:102500004F5F5F4F50939E0640939D06821793073F
:102510000CF07BCF789E9001799E300D1124E091D4
:10252000B506F091B606E20FF31F818592858130E2
:10253000910509F46FCF029771F680919D054801CE
:10254000881A910887FD9394880C991C880C991C13
:10255000092C000CAA08BB0880919E059E01281B2F
:10256000310987FD3395220F331F220F331F032EAE
:10257000000C440B550B281939094A095B09A0E7DF
:10258000B0E06CCF0150110909F0DACC87E292E09B
:102590000E947607C7CC86E192E0909376068093FE
:1025A00075062091810646EF420F443058F08EECBC
:1025B000820F843038F082EC820FEDE6F0E0883054
:1025C00018F00895EBE6F0E03081822F8650990BE9
:1025D000443080F087EF2233A9F08BEF233391F062
:1025E0008DEF243379F082EC820F8830D0F4822F83
:1025F0008E53990BBC0181E090E001C0880F6A9571
:10260000EAF780958323443070F09EEC920F94306B
:1026100050F02E53F0E0E0E0283038F4EDE6F0E042
:1026200004C08EEFEFCFEBE6F0E08083CACF052E3B
:1026300097FB1EF400940E942E1357FD07D00E94B2
:10264000411307FC03D04EF40C942E135095409583
:10265000309521953F4F4F4F5F4F0895909580954E
:10266000709561957F4F8F4F9F4F08950E94631320
:10267000A59F900DB49F900DA49F800D911D1124D6
:102680000895A1E21A2EAA1BBB1BFD010DC0AA1FB3
:10269000BB1FEE1FFF1FA217B307E407F50720F0CB
:1026A000A21BB30BE40BF50B661F771F881F991F46
:1026B0001A9469F760957095809590959B01AC018F
:1026C000BD01CF010895A29FB001B39FC001A39F98
:1026D000700D811D1124911DB29F700D811D11245B
:1026E000911D0895991B79E004C0991F961708F071
:1026F000961B881F7A95C9F78095089597FB072E3A
:1027000016F4009407D077FD09D00E949A1307FCB5
:1027100005D03EF4909581959F4F089570956195F1
:102720007F4F0895EE0FFF1F881F8BBF0790F69114
:10273000E02D1994AA1BBB1B51E107C0AA1FBB1FA8
:10274000A617B70710F0A61BB70B881F991F5A953D
:10275000A9F780959095BC01CD0108955058BB27ED
:10276000AA270E94C6130C94A5140E94971438F04F
:102770000E949E1420F039F49F3F19F426F40C9423
:1027800094140EF4E095E7FB0C948E14E92F0E944C
:10279000B61458F3BA17620773078407950720F039
:1027A00079F4A6F50C94D8140EF4E0950B2EBA2FFC
:1027B000A02D0B01B90190010C01CA01A001112447
:1027C000FF27591B99F0593F50F4503E68F11A16F3
:1027D000F040A22F232F342F4427585FF3CF469584
:1027E00037952795A795F0405395C9F77EF41F16A6
:1027F000BA0B620B730B840BBAF09150A1F0FF0F70
:10280000BB1F661F771F881FC2F70EC0BA0F621F5B
:10281000731F841F48F4879577956795B795F7954B
:102820009E3F08F0B0CF9395880F08F09927EE0FE0
:102830009795879508950E9422146894B1110C947D
:10284000D91408950E94BE1488F09F5798F0B92FAC
:102850009927B751B0F0E1F0660F771F881F991FD5
:102860001AF0BA95C9F714C0B13091F00E94D8148B
:10287000B1E008950C94D814672F782F8827B85F9B
:1028800039F0B93FCCF3869577956795B395D9F72D
:102890003EF490958095709561957F4F8F4F9F4F37
:1028A0000895E89409C097FB3EF490958095709543
:1028B00061957F4F8F4F9F4F9923A9F0F92F96E98C
:1028C000BB279395F695879577956795B795F11101
:1028D000F8CFFAF4BB0F11F460FF1BC06F5F7F4F9E
:1028E0008F4F9F4F16C0882311F096E911C07723B0
:1028F00021F09EE8872F762F05C0662371F096E8B9
:10290000862F70E060E02AF09A95660F771F881F87
:10291000DAF7880F9695879597F9089597F99F6745
:1029200080E870E060E008959FEF80EC0895002457
:102930000A941616170618060906089500240A9424
:1029400012161306140605060895092E0394000CAA
:1029500011F4882352F0BB0F40F4BF2B11F460FF39
:1029600004C06F5F7F4F8F4F9F4F089557FD905862
:10297000440F551F59F05F3F71F04795880F97FB43
:10298000991F61F09F3F79F08795089512161306FD
:102990001406551FF2CF4695F1DF08C0161617062C
:1029A0001806991FF1CF8695710561050894089561
:1029B000E894BB2766277727CB0197F908950E94F3
:1029C000F2140C94A5140E94971438F00E949E14DF
:1029D00020F0952311F00C948E140C94941411246F
:1029E0000C94D9140E94B61470F3959FC1F3950FFF
:1029F00050E0551F629FF001729FBB27F00DB11D83
:102A0000639FAA27F00DB11DAA1F649F6627B00D12
:102A1000A11D661F829F2227B00DA11D621F739FFB
:102A2000B00DA11D621F839FA00D611D221F749F09
:102A30003327A00D611D231F849F600D211D822F50
:102A4000762F6A2F11249F5750409AF0F1F0882377
:102A50004AF0EE0FFF1FBB1F661F771F881F9150A4
:102A60005040A9F79E3F510580F00C948E140C94B1
:102A7000D9145F3FE4F3983ED4F386957795679534
:102A8000B795F795E7959F5FC1F7FE2B880F911DCE
:102A90009695879597F90895FA01EE0FFF1F3096E6
:102AA00021053105A1F16115710561F48038BFE39D
:102AB0009B0749F168949038810561F08038BFEF39
:102AC0009B0741F099234AF5FF3FE10531052105B8
:102AD00019F1E8940894E795D901AA2329F4AB2FBA
:102AE000BE2FF85FD0F310C0FF5F70F4A695E0F73B
:102AF000F73950F019F0FF3A38F49F779F930DD0D3
:102B00000F9007FC9058089546F00C94941460E0E0
:102B100070E080E89FE308954FE79F775F934F93BE
:102B20003F932F930E9447162F913F914F915F91B2
:102B30000E94DF140C94A41529F416F00C948E1442
:102B40000C94D8140C9494140E94BE14A8F39638D4
:102B5000A0F707F80F92E8942BE33AEA48EB5FE717
:102B60000E94F5140F920F920F924DB75EB70F921D
:102B70000E948F16E4EEF0E00E94D6154F915F910F
:102B8000EF91FF91E595EE1FFF1F49F0FE57E068BA
:102B90004427EE0F441FFA95E1F74195550B0E942B
:102BA00009160F9007FE0C94FD150895DF93CF933F
:102BB0001F930F93FF92EF92DF927B018C01689439
:102BC00006C0DA2EEF010E94F214FE01E894A591EE
:102BD0002591359145915591A6F3EF010E94C613B9
:102BE000FE019701A801DA9469F7DF90EF90FF905A
:102BF0000F911F91CF91DF9108959B01AC0160E08F
:102C000070E080E89FE30C94C3160C948E140C942F
:102C100035170E94BE14D8F39923C9F3940F511DA0
:102C2000A3F39150504094F059F0882332F0660F8E
:102C3000771F881F91505040C1F79E3F51052CF7D8
:102C4000880F911D9695879597F908955F3FACF091
:102C5000983E9CF0BB27869577956795B79508F4C5
:102C6000B1609395C1F7BB0F58F711F460FFE8CF3F
:102C70006F5F7F4F8F4F9F4FE3CF0C94D91416F0A7
:102C80000C9435170C94941468940C948E140E9430
:102C9000BE14A8F39923C1F3AEF3DF93CF931F9330
:102CA0000F93FF92C92FDD2788232AF02197660F03
:102CB000771F881FDAF720E030E040E85FEB9FE302
:102CC000883920F0803E38F021968F770E94AF132C
:102CD000ECE0F1E004C00E94AF13E9E3F1E00E94F0
:102CE000D6158B01BE01EC01FB2E6F57710975954E
:102CF000771F880B990B0E94531428E132E741E3B8
:102D00005FE30E94F214AF2D9801AE01FF900F9186
:102D10001F91CF91DF910E94C6130C94A514FA0164
:102D2000DC01AA0FBB1F9B01AC01BF5728F422276F
:102D300033274427507820C0B75190F4AB2F00249C
:102D4000469537952795011CA395D2F3002071F085
:102D5000220F331F441FB395DAF30ED00C94AE1339
:102D600061307105A0E88A07B94630F49B01AC01D7
:102D70006627772788279078309621F02083318343
:102D80004283538308950E94D7160C94A5140E9481
:102D90009E1458F00E94971440F029F45F3F29F0E8
:102DA0000C948E1451110C94D9140C9494140E9408
:102DB000B61468F39923B1F3552391F3951B550B82
:102DC000BB27AA2762177307840738F09F5F5F4FFE
:102DD000220F331F441FAA1FA9F335D00E2E3AF03D
:102DE000E0E832D091505040E695001CCAF72BD055
:102DF000FE2F29D0660F771F881FBB1F26173707A6
:102E00004807AB07B0E809F0BB0B802DBF01FF27D7
:102E100093585F4F3AF09E3F510578F00C948E1412
:102E20000C94D9145F3FE4F3983ED4F386957795DC
:102E30006795B795F7959F5FC9F7880F911D969590
:102E4000879597F90895E1E0660F771F881FBB1FEC
:102E5000621773078407BA0720F0621B730B840B99
:102E6000BA0BEE1F88F7E09508959F3F31F091501F
:102E700020F4879577956795B795880F911D96955E
:102E8000879597F9089511E0C2EDD1E000E006C002
:102E9000802FFE010E9492132196011DC33DD10790
:0A2EA00080E00807A9F7F894FFCFBF
:102EAA0000000000F2035C0389033F04BA0398039D
:102EBA00AC030000000002075C034506F6050506A0
:102ECA001D06DC050D0A0068652063616E27742003
:102EDA004B4545502047455454494E472041574198
:102EEA00592057495448205448495321006661697A
:082EFA006C656400657A0000BC
:00000001FF
